:100000000C9434000C9451000C9451000C94510049
:100010000C9451000C9451000C9451000C9451001C
:100020000C9451000C9451000C9451000C9451000C
:100030000C9451000C9451000C9451000C945100FC
:100040000C9451000C9451000C9451000C945100EC
:100050000C9451000C9451000C9451000C945100DC
:100060000C9451000C94510011241FBECFEFD8E026
:10007000DEBFCDBF11E0A0E0B1E0EEE8F4E002C0E9
:1000800005900D92AE32B107D9F721E0AEE2B1E0B2
:1000900001C01D92A033B207E1F70E94E4000C9466
:1000A00045020C9400009091C00095FFFCCF809316
:1000B000C6000895CF93DF93EC018881811105C0BC
:1000C0008AE0DF91CF910C94530021960E94530057
:1000D000F4CF2BB12370972F969596959695929580
:1000E000990F990F907C72FB332737F9932B922B42
:1000F0009B0143E0369527954A95E1F720FB22279F
:1001000022F9AB01569547955695479540FB4427F4
:1001100043F9242B60FB332735F9232BAB0156958C
:10012000479542954071242B292B2BB970FB9927B9
:1001300091F967FB272F221F330B319520F920FB04
:10014000222722F9922B71FD91609B01B6E0369532
:100150002795BA95E1F720FB222723F9292BAB013C
:1001600095E0569547959A95E1F742954071242B75
:1001700034E0769567953A95E1F760FB662765F977
:10018000262B25B998B121E001C0220F8A95EAF704
:10019000822F8095892388B988B18E7D88B985E0C2
:1001A0008A95F1F7000088B1822B816288B90895A1
:1001B000CF93C1E060E078E08C2F0E946900CF5FB0
:1001C000C530C1F7CF910895CDB7DEB763970FB6AD
:1001D000F894DEBF0FBECDBF80E190E09093C500E4
:1001E0008093C40082E08093C00088E18093C100C6
:1001F00086E08093C2008AB18C6F8AB984B18F6324
:1002000084B987B18F6387B988B18F6388B90E9439
:10021000D80020E000E011E08091C00087FFFCCF13
:100220003091C6003D30C1F3822F90E03A3009F0A2
:1002300059C0AE014F5F5F4F840F951FFC011082C4
:10024000211559F0DE011196F8010E942A02892B2E
:1002500031F486E091E00E945A0020E0DDCFDE011B
:100260001196E4E2F1E00E942A02892B29F40E940F
:10027000D80084E291E0EFCFF981F98B8F2F815381
:10028000843068F58A81803251F5FE01339620E092
:10029000EA8BFB8B808181111AC021502330F8F446
:1002A00040E150E060E070E08A899B890E948A0109
:1002B0007031A8F4898980530E94690089810E9465
:1002C000530080E20E9453008A899B89C4CF90E04A
:1002D0000E947E01892B19F031962F5FDBCF89E2D6
:1002E00091E0B9CF2F3008F097CF2F5FAE014F5F6D
:1002F0005F4F840F951FFC0130838ECF91110C94BA
:10030000310280538A5028F0865C80628156865084
:10031000B0F70895EF92FF920F931F93CF93DF935F
:10032000EC01FB0185E192E00027112798010E9472
:10033000C101C901B801DF91CF911F910F91FF90C9
:10034000EF905EF0A170B0E86A17710581059B0718
:1003500020F4A0FF08950C943D02A395A695660B8A
:10036000770BCB019058A2E2B0E00C94B901A3E264
:10037000B0E00FB6F894A0932E01B0932F010FBEFA
:100380000895E894A4E04CD0552389F7B42FB532F2
:1003900070F7B13061F3BF01FC015991852F0E94C4
:1003A00037028823D1F75B3219F05D3211F4A16076
:1003B0005991503321F0BB23E9F4BAE01BC0AB7F65
:1003C0008881813608F4805E9927883751F08F360E
:1003D00039F0823621F0BB2361F4B8E00AC09650B0
:1003E0009850905FBB2311F09B1719F4B92FA260AE
:1003F000219659915A3338F0513608F050525154E1
:100400005A3140F4565C50535B1720F4A97F8EF3A9
:100410000995EFCFA2FD0895A1FD21972197FB013A
:10042000309711F0C083D1830895C80179018B9F63
:100430008001EB9E9001FB9E112049F4300D38F0B5
:100440009B9F050F101D211D1124311D08F4689478
:10045000112408958D91019080190110D9F3990B01
:10046000089599278827089591110C9431028032BC
:1004700019F089508550C8F708959095809570952A
:0E04800061957F4F8F4F9F4F0895F894FFCFE7
:10048E002A49444E3F0044414334383133206F6E85
:10049E002041726475696E6F20556E6F20526576BD
:0E04AE002E2033002A525354004552520000B3
:00000001FF
